{
  "contractName": "ProductAccessory",
  "abi": [
    {
      "inputs": [
        {
          "internalType": "address",
          "name": "_proxyRegistryAddress",
          "type": "address"
        }
      ],
      "stateMutability": "nonpayable",
      "type": "constructor"
    },
    {
      "anonymous": false,
      "inputs": [
        {
          "indexed": true,
          "internalType": "address",
          "name": "account",
          "type": "address"
        },
        {
          "indexed": true,
          "internalType": "address",
          "name": "operator",
          "type": "address"
        },
        {
          "indexed": false,
          "internalType": "bool",
          "name": "approved",
          "type": "bool"
        }
      ],
      "name": "ApprovalForAll",
      "type": "event"
    },
    {
      "anonymous": false,
      "inputs": [
        {
          "indexed": false,
          "internalType": "uint256",
          "name": "token_id",
          "type": "uint256"
        },
        {
          "indexed": false,
          "internalType": "uint256",
          "name": "product_id",
          "type": "uint256"
        }
      ],
      "name": "MintToken",
      "type": "event"
    },
    {
      "anonymous": false,
      "inputs": [
        {
          "indexed": true,
          "internalType": "address",
          "name": "previousOwner",
          "type": "address"
        },
        {
          "indexed": true,
          "internalType": "address",
          "name": "newOwner",
          "type": "address"
        }
      ],
      "name": "OwnershipTransferred",
      "type": "event"
    },
    {
      "anonymous": false,
      "inputs": [
        {
          "indexed": true,
          "internalType": "address",
          "name": "operator",
          "type": "address"
        },
        {
          "indexed": true,
          "internalType": "address",
          "name": "from",
          "type": "address"
        },
        {
          "indexed": true,
          "internalType": "address",
          "name": "to",
          "type": "address"
        },
        {
          "indexed": false,
          "internalType": "uint256[]",
          "name": "ids",
          "type": "uint256[]"
        },
        {
          "indexed": false,
          "internalType": "uint256[]",
          "name": "values",
          "type": "uint256[]"
        }
      ],
      "name": "TransferBatch",
      "type": "event"
    },
    {
      "anonymous": false,
      "inputs": [
        {
          "indexed": true,
          "internalType": "address",
          "name": "operator",
          "type": "address"
        },
        {
          "indexed": true,
          "internalType": "address",
          "name": "from",
          "type": "address"
        },
        {
          "indexed": true,
          "internalType": "address",
          "name": "to",
          "type": "address"
        },
        {
          "indexed": false,
          "internalType": "uint256",
          "name": "id",
          "type": "uint256"
        },
        {
          "indexed": false,
          "internalType": "uint256",
          "name": "value",
          "type": "uint256"
        }
      ],
      "name": "TransferSingle",
      "type": "event"
    },
    {
      "anonymous": false,
      "inputs": [
        {
          "indexed": false,
          "internalType": "string",
          "name": "value",
          "type": "string"
        },
        {
          "indexed": true,
          "internalType": "uint256",
          "name": "id",
          "type": "uint256"
        }
      ],
      "name": "URI",
      "type": "event"
    },
    {
      "inputs": [
        {
          "internalType": "address",
          "name": "account",
          "type": "address"
        },
        {
          "internalType": "uint256",
          "name": "id",
          "type": "uint256"
        }
      ],
      "name": "balanceOf",
      "outputs": [
        {
          "internalType": "uint256",
          "name": "",
          "type": "uint256"
        }
      ],
      "stateMutability": "view",
      "type": "function",
      "constant": true
    },
    {
      "inputs": [
        {
          "internalType": "address[]",
          "name": "accounts",
          "type": "address[]"
        },
        {
          "internalType": "uint256[]",
          "name": "ids",
          "type": "uint256[]"
        }
      ],
      "name": "balanceOfBatch",
      "outputs": [
        {
          "internalType": "uint256[]",
          "name": "",
          "type": "uint256[]"
        }
      ],
      "stateMutability": "view",
      "type": "function",
      "constant": true
    },
    {
      "inputs": [
        {
          "internalType": "address",
          "name": "_to",
          "type": "address"
        },
        {
          "internalType": "uint256[]",
          "name": "_ids",
          "type": "uint256[]"
        },
        {
          "internalType": "uint256[]",
          "name": "_quantities",
          "type": "uint256[]"
        },
        {
          "internalType": "bytes",
          "name": "_data",
          "type": "bytes"
        }
      ],
      "name": "batchMint",
      "outputs": [],
      "stateMutability": "nonpayable",
      "type": "function"
    },
    {
      "inputs": [
        {
          "internalType": "address",
          "name": "_initialOwner",
          "type": "address"
        },
        {
          "internalType": "uint256",
          "name": "_id",
          "type": "uint256"
        },
        {
          "internalType": "uint256",
          "name": "_initialSupply",
          "type": "uint256"
        },
        {
          "internalType": "string",
          "name": "_uri",
          "type": "string"
        },
        {
          "internalType": "bytes",
          "name": "_data",
          "type": "bytes"
        }
      ],
      "name": "create",
      "outputs": [
        {
          "internalType": "uint256",
          "name": "",
          "type": "uint256"
        }
      ],
      "stateMutability": "nonpayable",
      "type": "function"
    },
    {
      "inputs": [
        {
          "internalType": "uint256",
          "name": "",
          "type": "uint256"
        }
      ],
      "name": "creators",
      "outputs": [
        {
          "internalType": "address",
          "name": "",
          "type": "address"
        }
      ],
      "stateMutability": "view",
      "type": "function",
      "constant": true
    },
    {
      "inputs": [
        {
          "internalType": "uint256",
          "name": "_id",
          "type": "uint256"
        }
      ],
      "name": "exists",
      "outputs": [
        {
          "internalType": "bool",
          "name": "",
          "type": "bool"
        }
      ],
      "stateMutability": "view",
      "type": "function",
      "constant": true
    },
    {
      "inputs": [
        {
          "internalType": "address",
          "name": "_owner",
          "type": "address"
        },
        {
          "internalType": "address",
          "name": "_operator",
          "type": "address"
        }
      ],
      "name": "isApprovedForAll",
      "outputs": [
        {
          "internalType": "bool",
          "name": "isOperator",
          "type": "bool"
        }
      ],
      "stateMutability": "view",
      "type": "function",
      "constant": true
    },
    {
      "inputs": [
        {
          "internalType": "address",
          "name": "_to",
          "type": "address"
        },
        {
          "internalType": "uint256",
          "name": "_id",
          "type": "uint256"
        },
        {
          "internalType": "uint256",
          "name": "_quantity",
          "type": "uint256"
        },
        {
          "internalType": "bytes",
          "name": "_data",
          "type": "bytes"
        }
      ],
      "name": "mint",
      "outputs": [],
      "stateMutability": "nonpayable",
      "type": "function"
    },
    {
      "inputs": [],
      "name": "name",
      "outputs": [
        {
          "internalType": "string",
          "name": "",
          "type": "string"
        }
      ],
      "stateMutability": "view",
      "type": "function",
      "constant": true
    },
    {
      "inputs": [],
      "name": "owner",
      "outputs": [
        {
          "internalType": "address",
          "name": "",
          "type": "address"
        }
      ],
      "stateMutability": "view",
      "type": "function",
      "constant": true
    },
    {
      "inputs": [],
      "name": "renounceOwnership",
      "outputs": [],
      "stateMutability": "nonpayable",
      "type": "function"
    },
    {
      "inputs": [
        {
          "internalType": "address",
          "name": "from",
          "type": "address"
        },
        {
          "internalType": "address",
          "name": "to",
          "type": "address"
        },
        {
          "internalType": "uint256[]",
          "name": "ids",
          "type": "uint256[]"
        },
        {
          "internalType": "uint256[]",
          "name": "amounts",
          "type": "uint256[]"
        },
        {
          "internalType": "bytes",
          "name": "data",
          "type": "bytes"
        }
      ],
      "name": "safeBatchTransferFrom",
      "outputs": [],
      "stateMutability": "nonpayable",
      "type": "function"
    },
    {
      "inputs": [
        {
          "internalType": "address",
          "name": "from",
          "type": "address"
        },
        {
          "internalType": "address",
          "name": "to",
          "type": "address"
        },
        {
          "internalType": "uint256",
          "name": "id",
          "type": "uint256"
        },
        {
          "internalType": "uint256",
          "name": "amount",
          "type": "uint256"
        },
        {
          "internalType": "bytes",
          "name": "data",
          "type": "bytes"
        }
      ],
      "name": "safeTransferFrom",
      "outputs": [],
      "stateMutability": "nonpayable",
      "type": "function"
    },
    {
      "inputs": [
        {
          "internalType": "address",
          "name": "operator",
          "type": "address"
        },
        {
          "internalType": "bool",
          "name": "approved",
          "type": "bool"
        }
      ],
      "name": "setApprovalForAll",
      "outputs": [],
      "stateMutability": "nonpayable",
      "type": "function"
    },
    {
      "inputs": [
        {
          "internalType": "address",
          "name": "_to",
          "type": "address"
        },
        {
          "internalType": "uint256[]",
          "name": "_ids",
          "type": "uint256[]"
        }
      ],
      "name": "setCreator",
      "outputs": [],
      "stateMutability": "nonpayable",
      "type": "function"
    },
    {
      "inputs": [
        {
          "internalType": "uint256",
          "name": "_tokenId",
          "type": "uint256"
        },
        {
          "internalType": "string",
          "name": "_newURI",
          "type": "string"
        }
      ],
      "name": "setCustomURI",
      "outputs": [],
      "stateMutability": "nonpayable",
      "type": "function"
    },
    {
      "inputs": [
        {
          "internalType": "string",
          "name": "_newURI",
          "type": "string"
        }
      ],
      "name": "setURI",
      "outputs": [],
      "stateMutability": "nonpayable",
      "type": "function"
    },
    {
      "inputs": [
        {
          "internalType": "bytes4",
          "name": "interfaceId",
          "type": "bytes4"
        }
      ],
      "name": "supportsInterface",
      "outputs": [
        {
          "internalType": "bool",
          "name": "",
          "type": "bool"
        }
      ],
      "stateMutability": "view",
      "type": "function",
      "constant": true
    },
    {
      "inputs": [],
      "name": "symbol",
      "outputs": [
        {
          "internalType": "string",
          "name": "",
          "type": "string"
        }
      ],
      "stateMutability": "view",
      "type": "function",
      "constant": true
    },
    {
      "inputs": [
        {
          "internalType": "uint256",
          "name": "",
          "type": "uint256"
        }
      ],
      "name": "tokenSupply",
      "outputs": [
        {
          "internalType": "uint256",
          "name": "",
          "type": "uint256"
        }
      ],
      "stateMutability": "view",
      "type": "function",
      "constant": true
    },
    {
      "inputs": [
        {
          "internalType": "uint256",
          "name": "_id",
          "type": "uint256"
        }
      ],
      "name": "totalSupply",
      "outputs": [
        {
          "internalType": "uint256",
          "name": "",
          "type": "uint256"
        }
      ],
      "stateMutability": "view",
      "type": "function",
      "constant": true
    },
    {
      "inputs": [
        {
          "internalType": "address",
          "name": "newOwner",
          "type": "address"
        }
      ],
      "name": "transferOwnership",
      "outputs": [],
      "stateMutability": "nonpayable",
      "type": "function"
    },
    {
      "inputs": [
        {
          "internalType": "uint256",
          "name": "_id",
          "type": "uint256"
        }
      ],
      "name": "uri",
      "outputs": [
        {
          "internalType": "string",
          "name": "",
          "type": "string"
        }
      ],
      "stateMutability": "view",
      "type": "function",
      "constant": true
    },
    {
      "inputs": [],
      "name": "contractURI",
      "outputs": [
        {
          "internalType": "string",
          "name": "",
          "type": "string"
        }
      ],
      "stateMutability": "pure",
      "type": "function",
      "constant": true
    },
    {
      "inputs": [
        {
          "internalType": "address",
          "name": "_to",
          "type": "address"
        },
        {
          "internalType": "uint256",
          "name": "newTokenId",
          "type": "uint256"
        },
        {
          "internalType": "uint256",
          "name": "_quantity",
          "type": "uint256"
        },
        {
          "internalType": "uint256",
          "name": "product_id",
          "type": "uint256"
        },
        {
          "internalType": "string",
          "name": "name",
          "type": "string"
        },
        {
          "internalType": "string",
          "name": "description",
          "type": "string"
        },
        {
          "internalType": "string",
          "name": "image",
          "type": "string"
        },
        {
          "internalType": "string",
          "name": "exturnal_url",
          "type": "string"
        }
      ],
      "name": "mintTo",
      "outputs": [],
      "stateMutability": "nonpayable",
      "type": "function"
    },
    {
      "inputs": [
        {
          "internalType": "uint256",
          "name": "token_id",
          "type": "uint256"
        }
      ],
      "name": "getInfo",
      "outputs": [
        {
          "internalType": "string",
          "name": "",
          "type": "string"
        },
        {
          "internalType": "string",
          "name": "",
          "type": "string"
        },
        {
          "internalType": "string",
          "name": "",
          "type": "string"
        },
        {
          "internalType": "string",
          "name": "",
          "type": "string"
        },
        {
          "internalType": "uint256",
          "name": "",
          "type": "uint256"
        }
      ],
      "stateMutability": "view",
      "type": "function",
      "constant": true
    }
  ],
  "bytecode": "0x60806040523480156200001157600080fd5b5060405162002dd038038062002dd0833981016040819052620000349162000207565b6040518060400160405280601981526020017f4f70656e5365612050726f64756374204163636573736f727900000000000000815250604051806040016040528060038152602001624f504160e81b81525060405180606001604052806026815260200162002daa602691398381620000ad8162000148565b50600380546001600160a01b0319163390811790915560405181906000907f8be0079c531659141344cd1fd0a4f28419497f9722a3daafe3b4186f6b6457e0908290a35083516200010690600890602087019062000161565b5082516200011c90600990602086019062000161565b50600480546001600160a01b0319166001600160a01b0392909216919091179055506200027492505050565b80516200015d90600290602084019062000161565b5050565b8280546200016f9062000237565b90600052602060002090601f016020900481019282620001935760008555620001de565b82601f10620001ae57805160ff1916838001178555620001de565b82800160010185558215620001de579182015b82811115620001de578251825591602001919060010190620001c1565b50620001ec929150620001f0565b5090565b5b80821115620001ec5760008155600101620001f1565b60006020828403121562000219578081fd5b81516001600160a01b038116811462000230578182fd5b9392505050565b600181811c908216806200024c57607f821691505b602082108114156200026e57634e487b7160e01b600052602260045260246000fd5b50919050565b612b2680620002846000396000f3fe608060405234801561001057600080fd5b506004361061013d5760003560e01c8062fdd58e1461014257806301ffc9a71461016857806302fe53051461018b57806306fdde03146101a05780630e89341c146101b55780631a3cd59a146101c85780632693ebf2146101ec5780632eb2c2d61461020c57806336a100d51461021f5780633adf80b4146102325780634e1273f4146102455780634f558e7914610265578063715018a614610278578063731133e9146102805780638da5cb5b1461029357806395d89b41146102a8578063a22cb465146102b0578063b48ab8b6146102c3578063bd85b039146102d6578063cd53d08e146102f6578063d2a6b51a1461031f578063e8a3d48514610332578063e985e9c51461033a578063e9f73d8e1461034d578063f242432a14610360578063f2fde38b14610373575b600080fd5b6101556101503660046121cf565b610386565b6040519081526020015b60405180910390f35b61017b61017636600461243c565b610420565b604051901515815260200161015f565b61019e610199366004612490565b610474565b005b6101a86104af565b60405161015f9190612691565b6101a86101c33660046124c2565b61053d565b6101db6101d63660046124c2565b6106fc565b60405161015f9594939291906126a4565b6101556101fa3660046124c2565b60066020526000908152604090205481565b61019e61021a366004611fac565b61099e565b61015561022d36600461224e565b610c24565b61019e6102403660046124da565b610d47565b61025861025336600461237a565b610ddc565b60405161015f9190612650565b61017b6102733660046124c2565b610f3d565b61019e610f48565b61019e61028e3660046121fa565b610fc1565b61029b610ffe565b60405161015f9190612599565b6101a861100e565b61019e6102be36600461219e565b61101b565b61019e6102d1366004612108565b6110ff565b6101556102e43660046124c2565b60009081526006602052604090205490565b61029b6103043660046124c2565b6005602052600090815260409020546001600160a01b031681565b61019e61032d3660046120bb565b611246565b6101a861130b565b61017b610348366004611f74565b61132b565b61019e61035b3660046122a5565b6113fd565b61019e61036e366004612055565b611534565b61019e610381366004611f58565b6116e4565b60006001600160a01b0383166103f75760405162461bcd60e51b815260206004820152602b60248201527f455243313135353a2062616c616e636520717565727920666f7220746865207a60448201526a65726f206164647265737360a81b60648201526084015b60405180910390fd5b506000818152602081815260408083206001600160a01b03861684529091529020545b92915050565b60006001600160e01b03198216636cdb3d1360e11b148061045157506001600160e01b031982166303a24d0760e21b145b8061046c57506301ffc9a760e01b6001600160e01b03198316145b90505b919050565b3361047d610ffe565b6001600160a01b0316146104a35760405162461bcd60e51b81526004016103ee906127db565b6104ac816117d4565b50565b600880546104bc9061293c565b80601f01602080910402602001604051908101604052809291908181526020018280546104e89061293c565b80156105355780601f1061050a57610100808354040283529160200191610535565b820191906000526020600020905b81548152906001019060200180831161051857829003601f168201915b505050505081565b6060610548826117eb565b6105a35760405162461bcd60e51b815260206004820152602660248201527f455243313135355472616461626c65237572693a204e4f4e4558495354454e546044820152652faa27a5a2a760d11b60648201526084016103ee565b600082815260076020526040812080546105bc9061293c565b80601f01602080910402602001604051908101604052809291908181526020018280546105e89061293c565b80156106355780601f1061060a57610100808354040283529160200191610635565b820191906000526020600020905b81548152906001019060200180831161061857829003601f168201915b505050505090506000815111156106e5576000838152600760205260409020805461065f9061293c565b80601f016020809104026020016040519081016040528092919081815260200182805461068b9061293c565b80156106d85780601f106106ad576101008083540402835291602001916106d8565b820191906000526020600020905b8154815290600101906020018083116106bb57829003601f168201915b505050505091505061046f565b6106ee83611808565b91505061046f565b50919050565b606080606080600080600b60008881526020019081526020016000206040518060800160405290816000820180546107339061293c565b80601f016020809104026020016040519081016040528092919081815260200182805461075f9061293c565b80156107ac5780601f10610781576101008083540402835291602001916107ac565b820191906000526020600020905b81548152906001019060200180831161078f57829003601f168201915b505050505081526020016001820180546107c59061293c565b80601f01602080910402602001604051908101604052809291908181526020018280546107f19061293c565b801561083e5780601f106108135761010080835404028352916020019161083e565b820191906000526020600020905b81548152906001019060200180831161082157829003601f168201915b505050505081526020016002820180546108579061293c565b80601f01602080910402602001604051908101604052809291908181526020018280546108839061293c565b80156108d05780601f106108a5576101008083540402835291602001916108d0565b820191906000526020600020905b8154815290600101906020018083116108b357829003601f168201915b505050505081526020016003820180546108e99061293c565b80601f01602080910402602001604051908101604052809291908181526020018280546109159061293c565b80156109625780601f1061093757610100808354040283529160200191610962565b820191906000526020600020905b81548152906001019060200180831161094557829003601f168201915b505050919092525050815160208084015160408086015160609096015160009d8e52600a909352909b2054919b93995097509550909350505050565b81518351146109bf5760405162461bcd60e51b81526004016103ee90612810565b6001600160a01b0384166109e55760405162461bcd60e51b81526004016103ee9061274c565b6001600160a01b038516331480610a015750610a018533610348565b610a685760405162461bcd60e51b815260206004820152603260248201527f455243313135353a207472616e736665722063616c6c6572206973206e6f74206044820152711bdddb995c881b9bdc88185c1c1c9bdd995960721b60648201526084016103ee565b3360005b8451811015610bb6576000858281518110610a9757634e487b7160e01b600052603260045260246000fd5b602002602001015190506000858381518110610ac357634e487b7160e01b600052603260045260246000fd5b602090810291909101810151600084815280835260408082206001600160a01b038e168352909352919091205490915081811015610b135760405162461bcd60e51b81526004016103ee90612791565b610b1d8282612925565b60008085815260200190815260200160002060008c6001600160a01b03166001600160a01b03168152602001908152602001600020819055508160008085815260200190815260200160002060008b6001600160a01b03166001600160a01b031681526020019081526020016000206000828254610b9b919061290d565b9250508190555050505080610baf9061299d565b9050610a6c565b50846001600160a01b0316866001600160a01b0316826001600160a01b03167f4a39dc06d4c0dbc64b70af90fd698a233a518aa5d07e595d983b8c0526c8f7fb8787604051610c06929190612663565b60405180910390a4610c1c81878787878761189c565b505050505050565b600033610c2f610ffe565b6001600160a01b031614610c555760405162461bcd60e51b81526004016103ee906127db565b610c5e856117eb565b15610ca65760405162461bcd60e51b8152602060048201526018602482015277746f6b656e205f696420616c72656164792065786973747360401b60448201526064016103ee565b600085815260056020526040902080546001600160a01b03191633179055825115610d245760008581526007602090815260409091208451610cea92860190611dd2565b50847f6bb7ff708619ba0610cba295a58592e0451dee2622938c8755667688daf3529b84604051610d1b9190612691565b60405180910390a25b610d3086868685611a07565b505050600082815260066020526040902055919050565b60008281526005602052604090205482906001600160a01b03163314610d7f5760405162461bcd60e51b81526004016103ee90612899565b60008381526007602090815260409091208351610d9e92850190611dd2565b50827f6bb7ff708619ba0610cba295a58592e0451dee2622938c8755667688daf3529b83604051610dcf9190612691565b60405180910390a2505050565b60608151835114610e415760405162461bcd60e51b815260206004820152602960248201527f455243313135353a206163636f756e747320616e6420696473206c656e677468604482015268040dad2e6dac2e8c6d60bb1b60648201526084016103ee565b600083516001600160401b03811115610e6a57634e487b7160e01b600052604160045260246000fd5b604051908082528060200260200182016040528015610e93578160200160208202803683370190505b50905060005b8451811015610f3557610efa858281518110610ec557634e487b7160e01b600052603260045260246000fd5b6020026020010151858381518110610eed57634e487b7160e01b600052603260045260246000fd5b6020026020010151610386565b828281518110610f1a57634e487b7160e01b600052603260045260246000fd5b6020908102919091010152610f2e8161299d565b9050610e99565b509392505050565b600061046c826117eb565b33610f51610ffe565b6001600160a01b031614610f775760405162461bcd60e51b81526004016103ee906127db565b6003546040516000916001600160a01b0316907f8be0079c531659141344cd1fd0a4f28419497f9722a3daafe3b4186f6b6457e0908390a3600380546001600160a01b0319169055565b610fcd84848484611a07565b600083815260066020526040902054610fe69083611ace565b60009384526006602052604090932092909255505050565b6003546001600160a01b03165b90565b600980546104bc9061293c565b336001600160a01b03831614156110865760405162461bcd60e51b815260206004820152602960248201527f455243313135353a2073657474696e6720617070726f76616c20737461747573604482015268103337b91039b2b63360b91b60648201526084016103ee565b3360008181526001602090815260408083206001600160a01b0387168085529252909120805460ff1916841515179055906001600160a01b03167f17307eab39ab6107e8899845ad3d59bd9653f200f220920489ca2b5937696c31836040516110f3911515815260200190565b60405180910390a35050565b60005b835181101561123357600084828151811061112d57634e487b7160e01b600052603260045260246000fd5b602090810291909101810151600081815260059092526040909120549091506001600160a01b031633146111bb5760405162461bcd60e51b815260206004820152602f60248201527f455243313135355472616461626c652362617463684d696e743a204f4e4c595f60448201526e10d491505513d497d0531313d5d151608a1b60648201526084016103ee565b60008483815181106111dd57634e487b7160e01b600052603260045260246000fd5b6020026020010151905061120d816006600085815260200190815260200160002054611ace90919063ffffffff16565b60009283526006602052604090922091909155508061122b8161299d565b915050611102565b5061124084848484611ae1565b50505050565b6001600160a01b0382166112b15760405162461bcd60e51b815260206004820152602c60248201527f455243313135355472616461626c652373657443726561746f723a20494e564160448201526b2624a22fa0a2222922a9a99760a11b60648201526084016103ee565b60005b81518110156113065760008282815181106112df57634e487b7160e01b600052603260045260246000fd5b602002602001015190506112f38482611c48565b50806112fe8161299d565b9150506112b4565b505050565b6060604051806060016040528060398152602001612ab860399139905090565b6004805460405163c455279160e01b81526000926001600160a01b0392831692851691839163c45527919161136291899101612599565b60206040518083038186803b15801561137a57600080fd5b505afa15801561138e573d6000803e3d6000fd5b505050506040513d601f19601f820116820180604052508101906113b29190612474565b6001600160a01b031614156113cb57600191505061041a565b6001600160a01b0380851660009081526001602090815260408083209387168352929052205460ff165b949350505050565b33611406610ffe565b6001600160a01b03161461142c5760405162461bcd60e51b81526004016103ee906127db565b61144788888860405180602001604052806000815250610fc1565b6040805160808101825285815260208082018690528183018490526060820185905260008a8152600b825292909220815180519293919261148b9284920190611dd2565b5060208281015180516114a49260018501920190611dd2565b50604082015180516114c0916002840191602090910190611dd2565b50606082015180516114dc916003840191602090910190611dd2565b5050506000878152600a602090815260409182902088905581518981529081018790527f0a8baf1a40d5e4a8bfdc9ab231353378d5a3e45cee41d5b5455b4e0dbefa1991910160405180910390a15050505050505050565b6001600160a01b03841661155a5760405162461bcd60e51b81526004016103ee9061274c565b6001600160a01b03851633148061157657506115768533610348565b6115d45760405162461bcd60e51b815260206004820152602960248201527f455243313135353a2063616c6c6572206973206e6f74206f776e6572206e6f7260448201526808185c1c1c9bdd995960ba1b60648201526084016103ee565b336115f48187876115e488611caf565b6115ed88611caf565b5050505050565b6000848152602081815260408083206001600160a01b038a168452909152902054838110156116355760405162461bcd60e51b81526004016103ee90612791565b61163f8482612925565b6000868152602081815260408083206001600160a01b038c8116855292528083209390935588168152908120805486929061167b90849061290d565b909155505060408051868152602081018690526001600160a01b03808916928a821692918616917fc3d58168c5ae7397731d063d5bbf3d657854427343f4c083240f7aacaa2d0f62910160405180910390a46116db828888888888611d08565b50505050505050565b336116ed610ffe565b6001600160a01b0316146117135760405162461bcd60e51b81526004016103ee906127db565b6001600160a01b0381166117785760405162461bcd60e51b815260206004820152602660248201527f4f776e61626c653a206e6577206f776e657220697320746865207a65726f206160448201526564647265737360d01b60648201526084016103ee565b6003546040516001600160a01b038084169216907f8be0079c531659141344cd1fd0a4f28419497f9722a3daafe3b4186f6b6457e090600090a3600380546001600160a01b0319166001600160a01b0392909216919091179055565b80516117e7906002906020840190611dd2565b5050565b6000908152600560205260409020546001600160a01b0316151590565b6060600280546118179061293c565b80601f01602080910402602001604051908101604052809291908181526020018280546118439061293c565b80156118905780601f1061186557610100808354040283529160200191611890565b820191906000526020600020905b81548152906001019060200180831161187357829003601f168201915b50505050509050919050565b6001600160a01b0384163b15610c1c5760405163bc197c8160e01b81526001600160a01b0385169063bc197c81906118e090899089908890889088906004016125ad565b602060405180830381600087803b1580156118fa57600080fd5b505af192505050801561192a575060408051601f3d908101601f1916820190925261192791810190612458565b60015b6119d7576119366129e4565b806308c379a01415611970575061194b6129fb565b806119565750611972565b8060405162461bcd60e51b81526004016103ee9190612691565b505b60405162461bcd60e51b815260206004820152603460248201527f455243313135353a207472616e7366657220746f206e6f6e20455243313135356044820152732932b1b2b4bb32b91034b6b83632b6b2b73a32b960611b60648201526084016103ee565b6001600160e01b0319811663bc197c8160e01b146116db5760405162461bcd60e51b81526004016103ee90612704565b6001600160a01b038416611a2d5760405162461bcd60e51b81526004016103ee90612858565b33611a3e816000876115e488611caf565b6000848152602081815260408083206001600160a01b038916845290915281208054859290611a6e90849061290d565b909155505060408051858152602081018590526001600160a01b0380881692600092918516917fc3d58168c5ae7397731d063d5bbf3d657854427343f4c083240f7aacaa2d0f62910160405180910390a46115ed81600087878787611d08565b6000611ada828461290d565b9392505050565b6001600160a01b038416611b075760405162461bcd60e51b81526004016103ee90612858565b8151835114611b285760405162461bcd60e51b81526004016103ee90612810565b3360005b8451811015611be057838181518110611b5557634e487b7160e01b600052603260045260246000fd5b6020026020010151600080878481518110611b8057634e487b7160e01b600052603260045260246000fd5b602002602001015181526020019081526020016000206000886001600160a01b03166001600160a01b031681526020019081526020016000206000828254611bc8919061290d565b90915550819050611bd88161299d565b915050611b2c565b50846001600160a01b031660006001600160a01b0316826001600160a01b03167f4a39dc06d4c0dbc64b70af90fd698a233a518aa5d07e595d983b8c0526c8f7fb8787604051611c31929190612663565b60405180910390a46115ed8160008787878761189c565b60008181526005602052604090205481906001600160a01b03163314611c805760405162461bcd60e51b81526004016103ee90612899565b50600090815260056020526040902080546001600160a01b0319166001600160a01b0392909216919091179055565b60408051600180825281830190925260609160009190602080830190803683370190505090508281600081518110611cf757634e487b7160e01b600052603260045260246000fd5b602090810291909101015292915050565b6001600160a01b0384163b15610c1c5760405163f23a6e6160e01b81526001600160a01b0385169063f23a6e6190611d4c908990899088908890889060040161260b565b602060405180830381600087803b158015611d6657600080fd5b505af1925050508015611d96575060408051601f3d908101601f19168201909252611d9391810190612458565b60015b611da2576119366129e4565b6001600160e01b0319811663f23a6e6160e01b146116db5760405162461bcd60e51b81526004016103ee90612704565b828054611dde9061293c565b90600052602060002090601f016020900481019282611e005760008555611e46565b82601f10611e1957805160ff1916838001178555611e46565b82800160010185558215611e46579182015b82811115611e46578251825591602001919060010190611e2b565b50611e52929150611e56565b5090565b5b80821115611e525760008155600101611e57565b803561046f81612a8c565b600082601f830112611e86578081fd5b81356020611e93826128ea565b604051611ea08282612971565b8381528281019150858301600585901b87018401881015611ebf578586fd5b855b85811015611edd57813584529284019290840190600101611ec1565b5090979650505050505050565b600082601f830112611efa578081fd5b81356001600160401b03811115611f1357611f136129ce565b604051611f2a601f8301601f191660200182612971565b818152846020838601011115611f3e578283fd5b816020850160208301379081016020019190915292915050565b600060208284031215611f69578081fd5b8135611ada81612a8c565b60008060408385031215611f86578081fd5b8235611f9181612a8c565b91506020830135611fa181612a8c565b809150509250929050565b600080600080600060a08688031215611fc3578081fd5b8535611fce81612a8c565b94506020860135611fde81612a8c565b935060408601356001600160401b0380821115611ff9578283fd5b61200589838a01611e76565b9450606088013591508082111561201a578283fd5b61202689838a01611e76565b9350608088013591508082111561203b578283fd5b5061204888828901611eea565b9150509295509295909350565b600080600080600060a0868803121561206c578081fd5b853561207781612a8c565b9450602086013561208781612a8c565b9350604086013592506060860135915060808601356001600160401b038111156120af578182fd5b61204888828901611eea565b600080604083850312156120cd578182fd5b82356120d881612a8c565b915060208301356001600160401b038111156120f2578182fd5b6120fe85828601611e76565b9150509250929050565b6000806000806080858703121561211d578384fd5b843561212881612a8c565b935060208501356001600160401b0380821115612143578485fd5b61214f88838901611e76565b94506040870135915080821115612164578384fd5b61217088838901611e76565b93506060870135915080821115612185578283fd5b5061219287828801611eea565b91505092959194509250565b600080604083850312156121b0578182fd5b82356121bb81612a8c565b915060208301358015158114611fa1578182fd5b600080604083850312156121e1578182fd5b82356121ec81612a8c565b946020939093013593505050565b6000806000806080858703121561220f578182fd5b843561221a81612a8c565b9350602085013592506040850135915060608501356001600160401b03811115612242578182fd5b61219287828801611eea565b600080600080600060a08688031215612265578283fd5b853561227081612a8c565b9450602086013593506040860135925060608601356001600160401b0380821115612299578283fd5b61202689838a01611eea565b600080600080600080600080610100898b0312156122c1578586fd5b6122ca89611e6b565b975060208901359650604089013595506060890135945060808901356001600160401b03808211156122fa578485fd5b6123068c838d01611eea565b955060a08b013591508082111561231b578485fd5b6123278c838d01611eea565b945060c08b013591508082111561233c578384fd5b6123488c838d01611eea565b935060e08b013591508082111561235d578283fd5b5061236a8b828c01611eea565b9150509295985092959890939650565b6000806040838503121561238c578182fd5b82356001600160401b03808211156123a2578384fd5b818501915085601f8301126123b5578384fd5b813560206123c2826128ea565b6040516123cf8282612971565b8381528281019150858301600585901b870184018b10156123ee578889fd5b8896505b8487101561241957803561240581612a8c565b8352600196909601959183019183016123f2565b509650508601359250508082111561242f578283fd5b506120fe85828601611e76565b60006020828403121561244d578081fd5b8135611ada81612aa1565b600060208284031215612469578081fd5b8151611ada81612aa1565b600060208284031215612485578081fd5b8151611ada81612a8c565b6000602082840312156124a1578081fd5b81356001600160401b038111156124b6578182fd5b6113f584828501611eea565b6000602082840312156124d3578081fd5b5035919050565b600080604083850312156124ec578182fd5b8235915060208301356001600160401b03811115612508578182fd5b6120fe85828601611eea565b6000815180845260208085019450808401835b8381101561254357815187529582019590820190600101612527565b509495945050505050565b60008151808452815b8181101561257357602081850181015186830182015201612557565b818111156125845782602083870101525b50601f01601f19169290920160200192915050565b6001600160a01b0391909116815260200190565b6001600160a01b0386811682528516602082015260a0604082018190526000906125d990830186612514565b82810360608401526125eb8186612514565b905082810360808401526125ff818561254e565b98975050505050505050565b6001600160a01b03868116825285166020820152604081018490526060810183905260a0608082018190526000906126459083018461254e565b979650505050505050565b600060208252611ada6020830184612514565b6000604082526126766040830185612514565b82810360208401526126888185612514565b95945050505050565b600060208252611ada602083018461254e565b600060a082526126b760a083018861254e565b82810360208401526126c9818861254e565b905082810360408401526126dd818761254e565b905082810360608401526126f1818661254e565b9150508260808301529695505050505050565b60208082526028908201527f455243313135353a204552433131353552656365697665722072656a656374656040820152676420746f6b656e7360c01b606082015260800190565b60208082526025908201527f455243313135353a207472616e7366657220746f20746865207a65726f206164604082015264647265737360d81b606082015260800190565b6020808252602a908201527f455243313135353a20696e73756666696369656e742062616c616e636520666f60408201526939103a3930b739b332b960b11b606082015260800190565b6020808252818101527f4f776e61626c653a2063616c6c6572206973206e6f7420746865206f776e6572604082015260600190565b60208082526028908201527f455243313135353a2069647320616e6420616d6f756e7473206c656e677468206040820152670dad2e6dac2e8c6d60c31b606082015260800190565b60208082526021908201527f455243313135353a206d696e7420746f20746865207a65726f206164647265736040820152607360f81b606082015260800190565b60208082526031908201527f455243313135355472616461626c652363726561746f724f6e6c793a204f4e4c6040820152701657d0d491505513d497d0531313d5d151607a1b606082015260800190565b60006001600160401b03821115612903576129036129ce565b5060051b60200190565b60008219821115612920576129206129b8565b500190565b600082821015612937576129376129b8565b500390565b600181811c9082168061295057607f821691505b602082108114156106f657634e487b7160e01b600052602260045260246000fd5b601f8201601f191681016001600160401b0381118282101715612996576129966129ce565b6040525050565b60006000198214156129b1576129b16129b8565b5060010190565b634e487b7160e01b600052601160045260246000fd5b634e487b7160e01b600052604160045260246000fd5b600060033d111561100b57600481823e5160e01c90565b600060443d1015612a0b5761100b565b6040516003193d81016004833e81513d6001600160401b038160248401118184111715612a3c57505050505061100b565b8285019150815181811115612a565750505050505061100b565b843d8701016020828501011115612a725750505050505061100b565b612a8160208286010187612971565b509094505050505090565b6001600160a01b03811681146104ac57600080fd5b6001600160e01b0319811681146104ac57600080fdfe68747470733a2f2f6372656174757265732d6170692e6f70656e7365612e696f2f636f6e74726163742f6f70656e7365612d65726331313535a26469706673582212207a5c27ffd9b2df2ee607ac2970629d5f4e080023a3ec7ffd25c6b10b8f8dd20664736f6c63430008030033687474703a2f2f6c6f63616c686f73743a383038302f6170692f657263313135352f7b69647d",
  "immutableReferences": {},
  "source": "// SPDX-License-Identifier: MIT\n\npragma solidity ^0.8.0;\n\nimport \"./ERC1155Tradable.sol\";\n\n/**\n * @title CreatureAccessory\n * CreatureAccessory - a contract for Creature Accessory semi-fungible tokens.\n */\ncontract ProductAccessory is ERC1155Tradable {\n\n    struct ProductAccessoryInfo {\n        string name;\n        string description;\n        string exturnal_url;\n        string image;\n    }\n\n    event MintToken(uint256 token_id, uint256 product_id);\n\n    mapping (uint256 => uint256) quantities;\n    mapping (uint256 => ProductAccessoryInfo) productAccessories;\n\n    constructor(address _proxyRegistryAddress)\n        ERC1155Tradable(\n            \"OpenSea Product Accessory\",\n            \"OPA\",  \n            \"http://localhost:8080/api/erc1155/{id}\",\n            _proxyRegistryAddress\n        ) {}\n\n    function contractURI() public pure returns (string memory) {\n        return \"https://creatures-api.opensea.io/contract/opensea-erc1155\";\n    }\n\n    function mintTo(\n        address _to,\n        uint256 newTokenId,\n        uint256 _quantity,\n        uint256 product_id,\n        string memory name, \n        string memory description, \n        string memory image,\n        string memory exturnal_url\n    ) public onlyOwner {\n        mint(_to, newTokenId, _quantity, \"\");\n        productAccessories[newTokenId] = ProductAccessoryInfo({name:name, description:description, image:image, exturnal_url:exturnal_url});\n        quantities[newTokenId] = _quantity;\n        emit MintToken(newTokenId, product_id);\n    }\n\n    function getInfo(uint256 token_id) public view returns (string memory, string memory, string memory, string memory, uint256)  {\n        ProductAccessoryInfo memory product = productAccessories[token_id];\n        return (product.name, product.description, product.exturnal_url, product.image, quantities[token_id]);\n    }\n}\n",
  "sourcePath": "/Volumes/WORK/MyWork/NFTmarket/proj/NFTMarket/contract/contracts/ProductAccessory.sol",
  "compiler": {
    "name": "solc",
    "version": "0.8.3+commit.8d00100c.Emscripten.clang"
  },
  "schemaVersion": "3.3.4",
  "updatedAt": "2021-04-10T07:27:23.201Z",
  "networkType": "ethereum",
  "devdoc": {
    "kind": "dev",
    "methods": {
      "balanceOf(address,uint256)": {
        "details": "See {IERC1155-balanceOf}. Requirements: - `account` cannot be the zero address."
      },
      "balanceOfBatch(address[],uint256[])": {
        "details": "See {IERC1155-balanceOfBatch}. Requirements: - `accounts` and `ids` must have the same length."
      },
      "batchMint(address,uint256[],uint256[],bytes)": {
        "details": "Mint tokens for each id in _ids",
        "params": {
          "_data": "Data to pass if receiver is contract",
          "_ids": "Array of ids to mint",
          "_quantities": "Array of amounts of tokens to mint per id",
          "_to": "The address to mint tokens to"
        }
      },
      "create(address,uint256,uint256,string,bytes)": {
        "details": "Creates a new token type and assigns _initialSupply to an address NOTE: remove onlyOwner if you want third parties to create new tokens on       your contract (which may change your IDs) NOTE: The token id must be passed. This allows lazy creation of tokens or       creating NFTs by setting the id's high bits with the method       described in ERC1155 or to use ids representing values other than       successive small integers. If you wish to create ids as successive       small integers you can either subclass this class to count onchain       or maintain the offchain cache of identifiers recommended in       ERC1155 and calculate successive ids from that.",
        "params": {
          "_data": "Data to pass if receiver is contract",
          "_id": "The id of the token to create (must not currenty exist).",
          "_initialOwner": "address of the first owner of the token",
          "_initialSupply": "amount to supply the first owner",
          "_uri": "Optional URI for this token type"
        },
        "returns": {
          "_0": "The newly created token ID"
        }
      },
      "mint(address,uint256,uint256,bytes)": {
        "details": "Mints some amount of tokens to an address",
        "params": {
          "_data": "Data to pass if receiver is contract",
          "_id": "Token ID to mint",
          "_quantity": "Amount of tokens to mint",
          "_to": "Address of the future owner of the token"
        }
      },
      "owner()": {
        "details": "Returns the address of the current owner."
      },
      "renounceOwnership()": {
        "details": "Leaves the contract without owner. It will not be possible to call `onlyOwner` functions anymore. Can only be called by the current owner. NOTE: Renouncing ownership will leave the contract without an owner, thereby removing any functionality that is only available to the owner."
      },
      "safeBatchTransferFrom(address,address,uint256[],uint256[],bytes)": {
        "details": "See {IERC1155-safeBatchTransferFrom}."
      },
      "safeTransferFrom(address,address,uint256,uint256,bytes)": {
        "details": "See {IERC1155-safeTransferFrom}."
      },
      "setApprovalForAll(address,bool)": {
        "details": "See {IERC1155-setApprovalForAll}."
      },
      "setCreator(address,uint256[])": {
        "details": "Change the creator address for given tokens",
        "params": {
          "_ids": "Array of Token IDs to change creator",
          "_to": "Address of the new creator"
        }
      },
      "setCustomURI(uint256,string)": {
        "details": "Will update the base URI for the token",
        "params": {
          "_newURI": "New URI for the token.",
          "_tokenId": "The token to upddate. msg.sender must be its creator."
        }
      },
      "setURI(string)": {
        "details": "Sets a new URI for all token types, by relying on the token type ID substitution mechanism https://eips.ethereum.org/EIPS/eip-1155#metadata[defined in the EIP].",
        "params": {
          "_newURI": "New URI for all tokens"
        }
      },
      "supportsInterface(bytes4)": {
        "details": "See {IERC165-supportsInterface}."
      },
      "totalSupply(uint256)": {
        "details": "Returns the total quantity for a token ID",
        "params": {
          "_id": "uint256 ID of the token to query"
        },
        "returns": {
          "_0": "amount of token in existence"
        }
      },
      "transferOwnership(address)": {
        "details": "Transfers ownership of the contract to a new account (`newOwner`). Can only be called by the current owner."
      }
    },
    "title": "CreatureAccessory CreatureAccessory - a contract for Creature Accessory semi-fungible tokens.",
    "version": 1
  },
  "userdoc": {
    "kind": "user",
    "methods": {
      "isApprovedForAll(address,address)": {
        "notice": "Override isApprovedForAll to whitelist user's OpenSea proxy accounts to enable gas-free listings."
      }
    },
    "version": 1
  }
}